{
  "_format": "hh-sol-artifact-1",
  "contractName": "TestERC721",
  "sourceName": "contracts/TestNFT.sol",
  "abi": [
    {
      "inputs": [
        {
          "internalType": "address",
          "name": "rewardToken_",
          "type": "address"
        }
      ],
      "stateMutability": "nonpayable",
      "type": "constructor"
    },
    {
      "inputs": [],
      "name": "ContractNotEnoughRewardToken",
      "type": "error"
    },
    {
      "inputs": [
        {
          "internalType": "address",
          "name": "sender",
          "type": "address"
        },
        {
          "internalType": "uint256",
          "name": "tokenId",
          "type": "uint256"
        },
        {
          "internalType": "address",
          "name": "owner",
          "type": "address"
        }
      ],
      "name": "ERC721IncorrectOwner",
      "type": "error"
    },
    {
      "inputs": [
        {
          "internalType": "address",
          "name": "operator",
          "type": "address"
        },
        {
          "internalType": "uint256",
          "name": "tokenId",
          "type": "uint256"
        }
      ],
      "name": "ERC721InsufficientApproval",
      "type": "error"
    },
    {
      "inputs": [
        {
          "internalType": "address",
          "name": "approver",
          "type": "address"
        }
      ],
      "name": "ERC721InvalidApprover",
      "type": "error"
    },
    {
      "inputs": [
        {
          "internalType": "address",
          "name": "operator",
          "type": "address"
        }
      ],
      "name": "ERC721InvalidOperator",
      "type": "error"
    },
    {
      "inputs": [
        {
          "internalType": "address",
          "name": "owner",
          "type": "address"
        }
      ],
      "name": "ERC721InvalidOwner",
      "type": "error"
    },
    {
      "inputs": [
        {
          "internalType": "address",
          "name": "receiver",
          "type": "address"
        }
      ],
      "name": "ERC721InvalidReceiver",
      "type": "error"
    },
    {
      "inputs": [
        {
          "internalType": "address",
          "name": "sender",
          "type": "address"
        }
      ],
      "name": "ERC721InvalidSender",
      "type": "error"
    },
    {
      "inputs": [
        {
          "internalType": "uint256",
          "name": "tokenId",
          "type": "uint256"
        }
      ],
      "name": "ERC721NonexistentToken",
      "type": "error"
    },
    {
      "inputs": [],
      "name": "NotAuthorized",
      "type": "error"
    },
    {
      "inputs": [
        {
          "internalType": "address",
          "name": "owner",
          "type": "address"
        }
      ],
      "name": "OwnableInvalidOwner",
      "type": "error"
    },
    {
      "inputs": [
        {
          "internalType": "address",
          "name": "account",
          "type": "address"
        }
      ],
      "name": "OwnableUnauthorizedAccount",
      "type": "error"
    },
    {
      "inputs": [
        {
          "internalType": "address",
          "name": "token",
          "type": "address"
        }
      ],
      "name": "SafeERC20FailedOperation",
      "type": "error"
    },
    {
      "anonymous": false,
      "inputs": [
        {
          "indexed": true,
          "internalType": "address",
          "name": "owner",
          "type": "address"
        },
        {
          "indexed": true,
          "internalType": "address",
          "name": "approved",
          "type": "address"
        },
        {
          "indexed": true,
          "internalType": "uint256",
          "name": "tokenId",
          "type": "uint256"
        }
      ],
      "name": "Approval",
      "type": "event"
    },
    {
      "anonymous": false,
      "inputs": [
        {
          "indexed": true,
          "internalType": "address",
          "name": "owner",
          "type": "address"
        },
        {
          "indexed": true,
          "internalType": "address",
          "name": "operator",
          "type": "address"
        },
        {
          "indexed": false,
          "internalType": "bool",
          "name": "approved",
          "type": "bool"
        }
      ],
      "name": "ApprovalForAll",
      "type": "event"
    },
    {
      "anonymous": false,
      "inputs": [
        {
          "indexed": true,
          "internalType": "address",
          "name": "previousOwner",
          "type": "address"
        },
        {
          "indexed": true,
          "internalType": "address",
          "name": "newOwner",
          "type": "address"
        }
      ],
      "name": "OwnershipTransferred",
      "type": "event"
    },
    {
      "anonymous": false,
      "inputs": [
        {
          "indexed": true,
          "internalType": "address",
          "name": "from",
          "type": "address"
        },
        {
          "indexed": true,
          "internalType": "address",
          "name": "to",
          "type": "address"
        },
        {
          "indexed": true,
          "internalType": "uint256",
          "name": "tokenId",
          "type": "uint256"
        }
      ],
      "name": "Transfer",
      "type": "event"
    },
    {
      "inputs": [
        {
          "internalType": "address",
          "name": "to",
          "type": "address"
        },
        {
          "internalType": "uint256",
          "name": "tokenId",
          "type": "uint256"
        }
      ],
      "name": "approve",
      "outputs": [],
      "stateMutability": "nonpayable",
      "type": "function"
    },
    {
      "inputs": [
        {
          "internalType": "address",
          "name": "owner",
          "type": "address"
        }
      ],
      "name": "balanceOf",
      "outputs": [
        {
          "internalType": "uint256",
          "name": "",
          "type": "uint256"
        }
      ],
      "stateMutability": "view",
      "type": "function"
    },
    {
      "inputs": [
        {
          "internalType": "uint256",
          "name": "tokenId",
          "type": "uint256"
        }
      ],
      "name": "burn",
      "outputs": [],
      "stateMutability": "nonpayable",
      "type": "function"
    },
    {
      "inputs": [
        {
          "internalType": "uint256",
          "name": "tokenId",
          "type": "uint256"
        }
      ],
      "name": "getApproved",
      "outputs": [
        {
          "internalType": "address",
          "name": "",
          "type": "address"
        }
      ],
      "stateMutability": "view",
      "type": "function"
    },
    {
      "inputs": [
        {
          "internalType": "address",
          "name": "owner",
          "type": "address"
        },
        {
          "internalType": "address",
          "name": "operator",
          "type": "address"
        }
      ],
      "name": "isApprovedForAll",
      "outputs": [
        {
          "internalType": "bool",
          "name": "",
          "type": "bool"
        }
      ],
      "stateMutability": "view",
      "type": "function"
    },
    {
      "inputs": [],
      "name": "mint",
      "outputs": [],
      "stateMutability": "nonpayable",
      "type": "function"
    },
    {
      "inputs": [],
      "name": "name",
      "outputs": [
        {
          "internalType": "string",
          "name": "",
          "type": "string"
        }
      ],
      "stateMutability": "view",
      "type": "function"
    },
    {
      "inputs": [],
      "name": "owner",
      "outputs": [
        {
          "internalType": "address",
          "name": "",
          "type": "address"
        }
      ],
      "stateMutability": "view",
      "type": "function"
    },
    {
      "inputs": [
        {
          "internalType": "uint256",
          "name": "tokenId",
          "type": "uint256"
        }
      ],
      "name": "ownerOf",
      "outputs": [
        {
          "internalType": "address",
          "name": "",
          "type": "address"
        }
      ],
      "stateMutability": "view",
      "type": "function"
    },
    {
      "inputs": [],
      "name": "renounceOwnership",
      "outputs": [],
      "stateMutability": "nonpayable",
      "type": "function"
    },
    {
      "inputs": [
        {
          "internalType": "address",
          "name": "from",
          "type": "address"
        },
        {
          "internalType": "address",
          "name": "to",
          "type": "address"
        },
        {
          "internalType": "uint256",
          "name": "tokenId",
          "type": "uint256"
        }
      ],
      "name": "safeTransferFrom",
      "outputs": [],
      "stateMutability": "nonpayable",
      "type": "function"
    },
    {
      "inputs": [
        {
          "internalType": "address",
          "name": "from",
          "type": "address"
        },
        {
          "internalType": "address",
          "name": "to",
          "type": "address"
        },
        {
          "internalType": "uint256",
          "name": "tokenId",
          "type": "uint256"
        },
        {
          "internalType": "bytes",
          "name": "data",
          "type": "bytes"
        }
      ],
      "name": "safeTransferFrom",
      "outputs": [],
      "stateMutability": "nonpayable",
      "type": "function"
    },
    {
      "inputs": [
        {
          "internalType": "address",
          "name": "operator",
          "type": "address"
        },
        {
          "internalType": "bool",
          "name": "approved",
          "type": "bool"
        }
      ],
      "name": "setApprovalForAll",
      "outputs": [],
      "stateMutability": "nonpayable",
      "type": "function"
    },
    {
      "inputs": [
        {
          "internalType": "bytes4",
          "name": "interfaceId",
          "type": "bytes4"
        }
      ],
      "name": "supportsInterface",
      "outputs": [
        {
          "internalType": "bool",
          "name": "",
          "type": "bool"
        }
      ],
      "stateMutability": "view",
      "type": "function"
    },
    {
      "inputs": [],
      "name": "symbol",
      "outputs": [
        {
          "internalType": "string",
          "name": "",
          "type": "string"
        }
      ],
      "stateMutability": "view",
      "type": "function"
    },
    {
      "inputs": [
        {
          "internalType": "uint256",
          "name": "tokenId",
          "type": "uint256"
        }
      ],
      "name": "tokenURI",
      "outputs": [
        {
          "internalType": "string",
          "name": "",
          "type": "string"
        }
      ],
      "stateMutability": "view",
      "type": "function"
    },
    {
      "inputs": [
        {
          "internalType": "address",
          "name": "from",
          "type": "address"
        },
        {
          "internalType": "address",
          "name": "to",
          "type": "address"
        },
        {
          "internalType": "uint256",
          "name": "tokenId",
          "type": "uint256"
        }
      ],
      "name": "transferFrom",
      "outputs": [],
      "stateMutability": "nonpayable",
      "type": "function"
    },
    {
      "inputs": [
        {
          "internalType": "address",
          "name": "newOwner",
          "type": "address"
        }
      ],
      "name": "transferOwnership",
      "outputs": [],
      "stateMutability": "nonpayable",
      "type": "function"
    }
  ],
  "bytecode": "0x6080604052600160085534801561001557600080fd5b50604051612bb2380380612bb2833981810160405281019061003791906102b8565b336040518060400160405280600781526020017f546573744e4654000000000000000000000000000000000000000000000000008152506040518060400160405280600481526020017f544e46540000000000000000000000000000000000000000000000000000000081525081600090816100b39190610535565b5080600190816100c39190610535565b505050600073ffffffffffffffffffffffffffffffffffffffff168173ffffffffffffffffffffffffffffffffffffffff16036101385760006040517f1e4fbdf700000000000000000000000000000000000000000000000000000000815260040161012f9190610616565b60405180910390fd5b6101478161018f60201b60201c565b5080600760006101000a81548173ffffffffffffffffffffffffffffffffffffffff021916908373ffffffffffffffffffffffffffffffffffffffff16021790555050610631565b6000600660009054906101000a900473ffffffffffffffffffffffffffffffffffffffff16905081600660006101000a81548173ffffffffffffffffffffffffffffffffffffffff021916908373ffffffffffffffffffffffffffffffffffffffff1602179055508173ffffffffffffffffffffffffffffffffffffffff168173ffffffffffffffffffffffffffffffffffffffff167f8be0079c531659141344cd1fd0a4f28419497f9722a3daafe3b4186f6b6457e060405160405180910390a35050565b600080fd5b600073ffffffffffffffffffffffffffffffffffffffff82169050919050565b60006102858261025a565b9050919050565b6102958161027a565b81146102a057600080fd5b50565b6000815190506102b28161028c565b92915050565b6000602082840312156102ce576102cd610255565b5b60006102dc848285016102a3565b91505092915050565b600081519050919050565b7f4e487b7100000000000000000000000000000000000000000000000000000000600052604160045260246000fd5b7f4e487b7100000000000000000000000000000000000000000000000000000000600052602260045260246000fd5b6000600282049050600182168061036657607f821691505b6020821081036103795761037861031f565b5b50919050565b60008190508160005260206000209050919050565b60006020601f8301049050919050565b600082821b905092915050565b6000600883026103e17fffffffffffffffffffffffffffffffffffffffffffffffffffffffffffffffff826103a4565b6103eb86836103a4565b95508019841693508086168417925050509392505050565b6000819050919050565b6000819050919050565b600061043261042d61042884610403565b61040d565b610403565b9050919050565b6000819050919050565b61044c83610417565b61046061045882610439565b8484546103b1565b825550505050565b600090565b610475610468565b610480818484610443565b505050565b5b818110156104a45761049960008261046d565b600181019050610486565b5050565b601f8211156104e9576104ba8161037f565b6104c384610394565b810160208510156104d2578190505b6104e66104de85610394565b830182610485565b50505b505050565b600082821c905092915050565b600061050c600019846008026104ee565b1980831691505092915050565b600061052583836104fb565b9150826002028217905092915050565b61053e826102e5565b67ffffffffffffffff811115610557576105566102f0565b5b610561825461034e565b61056c8282856104a8565b600060209050601f83116001811461059f576000841561058d578287015190505b6105978582610519565b8655506105ff565b601f1984166105ad8661037f565b60005b828110156105d5578489015182556001820191506020850194506020810190506105b0565b868310156105f257848901516105ee601f8916826104fb565b8355505b6001600288020188555050505b505050505050565b6106108161027a565b82525050565b600060208201905061062b6000830184610607565b92915050565b612572806106406000396000f3fe608060405234801561001057600080fd5b50600436106101165760003560e01c806370a08231116100a2578063a22cb46511610071578063a22cb465146102b9578063b88d4fde146102d5578063c87b56dd146102f1578063e985e9c514610321578063f2fde38b1461035157610116565b806370a0823114610243578063715018a6146102735780638da5cb5b1461027d57806395d89b411461029b57610116565b80631249c58b116100e95780631249c58b146101b557806323b872dd146101bf57806342842e0e146101db57806342966c68146101f75780636352211e1461021357610116565b806301ffc9a71461011b57806306fdde031461014b578063081812fc14610169578063095ea7b314610199575b600080fd5b61013560048036038101906101309190611c40565b61036d565b6040516101429190611c88565b60405180910390f35b61015361044f565b6040516101609190611d33565b60405180910390f35b610183600480360381019061017e9190611d8b565b6104e1565b6040516101909190611df9565b60405180910390f35b6101b360048036038101906101ae9190611e40565b6104fd565b005b6101bd610513565b005b6101d960048036038101906101d49190611e80565b610535565b005b6101f560048036038101906101f09190611e80565b610637565b005b610211600480360381019061020c9190611d8b565b610657565b005b61022d60048036038101906102289190611d8b565b61084b565b60405161023a9190611df9565b60405180910390f35b61025d60048036038101906102589190611ed3565b61085d565b60405161026a9190611f0f565b60405180910390f35b61027b610917565b005b61028561092b565b6040516102929190611df9565b60405180910390f35b6102a3610955565b6040516102b09190611d33565b60405180910390f35b6102d360048036038101906102ce9190611f56565b6109e7565b005b6102ef60048036038101906102ea91906120cb565b6109fd565b005b61030b60048036038101906103069190611d8b565b610a22565b6040516103189190611d33565b60405180910390f35b61033b6004803603810190610336919061214e565b610a8b565b6040516103489190611c88565b60405180910390f35b61036b60048036038101906103669190611ed3565b610b1f565b005b60007f80ac58cd000000000000000000000000000000000000000000000000000000007bffffffffffffffffffffffffffffffffffffffffffffffffffffffff1916827bffffffffffffffffffffffffffffffffffffffffffffffffffffffff1916148061043857507f5b5e139f000000000000000000000000000000000000000000000000000000007bffffffffffffffffffffffffffffffffffffffffffffffffffffffff1916827bffffffffffffffffffffffffffffffffffffffffffffffffffffffff1916145b80610448575061044782610ba5565b5b9050919050565b60606000805461045e906121bd565b80601f016020809104026020016040519081016040528092919081815260200182805461048a906121bd565b80156104d75780601f106104ac576101008083540402835291602001916104d7565b820191906000526020600020905b8154815290600101906020018083116104ba57829003601f168201915b5050505050905090565b60006104ec82610c0f565b506104f682610c97565b9050919050565b61050f828261050a610cd4565b610cdc565b5050565b610533336008600081548092919061052a9061221d565b91905055610cee565b565b600073ffffffffffffffffffffffffffffffffffffffff168273ffffffffffffffffffffffffffffffffffffffff16036105a75760006040517f64a0ae9200000000000000000000000000000000000000000000000000000000815260040161059e9190611df9565b60405180910390fd5b60006105bb83836105b6610cd4565b610de7565b90508373ffffffffffffffffffffffffffffffffffffffff168173ffffffffffffffffffffffffffffffffffffffff1614610631578382826040517f64283d7b00000000000000000000000000000000000000000000000000000000815260040161062893929190612265565b60405180910390fd5b50505050565b610652838383604051806020016040528060008152506109fd565b505050565b3373ffffffffffffffffffffffffffffffffffffffff166106778261084b565b73ffffffffffffffffffffffffffffffffffffffff16146106c4576040517fea8e4eb500000000000000000000000000000000000000000000000000000000815260040160405180910390fd5b6106cd81611001565b6000677ce66c50e28400004244846040516020016106ed939291906122bd565b6040516020818303038152906040528051906020012060001c6107109190612329565b670de0b6b3a7640000610723919061235a565b905080600760009054906101000a900473ffffffffffffffffffffffffffffffffffffffff1673ffffffffffffffffffffffffffffffffffffffff166370a08231306040518263ffffffff1660e01b81526004016107819190611df9565b602060405180830381865afa15801561079e573d6000803e3d6000fd5b505050506040513d601f19601f820116820180604052508101906107c291906123a3565b10156107fa576040517fac69707a00000000000000000000000000000000000000000000000000000000815260040160405180910390fd5b6108473382600760009054906101000a900473ffffffffffffffffffffffffffffffffffffffff1673ffffffffffffffffffffffffffffffffffffffff166110879092919063ffffffff16565b5050565b600061085682610c0f565b9050919050565b60008073ffffffffffffffffffffffffffffffffffffffff168273ffffffffffffffffffffffffffffffffffffffff16036108d05760006040517f89c62b640000000000000000000000000000000000000000000000000000000081526004016108c79190611df9565b60405180910390fd5b600360008373ffffffffffffffffffffffffffffffffffffffff1673ffffffffffffffffffffffffffffffffffffffff168152602001908152602001600020549050919050565b61091f611106565b610929600061118d565b565b6000600660009054906101000a900473ffffffffffffffffffffffffffffffffffffffff16905090565b606060018054610964906121bd565b80601f0160208091040260200160405190810160405280929190818152602001828054610990906121bd565b80156109dd5780601f106109b2576101008083540402835291602001916109dd565b820191906000526020600020905b8154815290600101906020018083116109c057829003601f168201915b5050505050905090565b6109f96109f2610cd4565b8383611253565b5050565b610a08848484610535565b610a1c610a13610cd4565b858585856113c2565b50505050565b6060610a2d82610c0f565b506000610a38611573565b90506000815111610a585760405180602001604052806000815250610a83565b80610a628461158a565b604051602001610a7392919061240c565b6040516020818303038152906040525b915050919050565b6000600560008473ffffffffffffffffffffffffffffffffffffffff1673ffffffffffffffffffffffffffffffffffffffff16815260200190815260200160002060008373ffffffffffffffffffffffffffffffffffffffff1673ffffffffffffffffffffffffffffffffffffffff16815260200190815260200160002060009054906101000a900460ff16905092915050565b610b27611106565b600073ffffffffffffffffffffffffffffffffffffffff168173ffffffffffffffffffffffffffffffffffffffff1603610b995760006040517f1e4fbdf7000000000000000000000000000000000000000000000000000000008152600401610b909190611df9565b60405180910390fd5b610ba28161118d565b50565b60007f01ffc9a7000000000000000000000000000000000000000000000000000000007bffffffffffffffffffffffffffffffffffffffffffffffffffffffff1916827bffffffffffffffffffffffffffffffffffffffffffffffffffffffff1916149050919050565b600080610c1b83611658565b9050600073ffffffffffffffffffffffffffffffffffffffff168173ffffffffffffffffffffffffffffffffffffffff1603610c8e57826040517f7e273289000000000000000000000000000000000000000000000000000000008152600401610c859190611f0f565b60405180910390fd5b80915050919050565b60006004600083815260200190815260200160002060009054906101000a900473ffffffffffffffffffffffffffffffffffffffff169050919050565b600033905090565b610ce98383836001611695565b505050565b600073ffffffffffffffffffffffffffffffffffffffff168273ffffffffffffffffffffffffffffffffffffffff1603610d605760006040517f64a0ae92000000000000000000000000000000000000000000000000000000008152600401610d579190611df9565b60405180910390fd5b6000610d6e83836000610de7565b9050600073ffffffffffffffffffffffffffffffffffffffff168173ffffffffffffffffffffffffffffffffffffffff1614610de25760006040517f73c6ac6e000000000000000000000000000000000000000000000000000000008152600401610dd99190611df9565b60405180910390fd5b505050565b600080610df384611658565b9050600073ffffffffffffffffffffffffffffffffffffffff168373ffffffffffffffffffffffffffffffffffffffff1614610e3557610e3481848661185a565b5b600073ffffffffffffffffffffffffffffffffffffffff168173ffffffffffffffffffffffffffffffffffffffff1614610ec657610e77600085600080611695565b6001600360008373ffffffffffffffffffffffffffffffffffffffff1673ffffffffffffffffffffffffffffffffffffffff168152602001908152602001600020600082825403925050819055505b600073ffffffffffffffffffffffffffffffffffffffff168573ffffffffffffffffffffffffffffffffffffffff1614610f49576001600360008773ffffffffffffffffffffffffffffffffffffffff1673ffffffffffffffffffffffffffffffffffffffff168152602001908152602001600020600082825401925050819055505b846002600086815260200190815260200160002060006101000a81548173ffffffffffffffffffffffffffffffffffffffff021916908373ffffffffffffffffffffffffffffffffffffffff160217905550838573ffffffffffffffffffffffffffffffffffffffff168273ffffffffffffffffffffffffffffffffffffffff167fddf252ad1be2c89b69c2b068fc378daa952ba7f163c4a11628f55a4df523b3ef60405160405180910390a4809150509392505050565b60006110106000836000610de7565b9050600073ffffffffffffffffffffffffffffffffffffffff168173ffffffffffffffffffffffffffffffffffffffff160361108357816040517f7e27328900000000000000000000000000000000000000000000000000000000815260040161107a9190611f0f565b60405180910390fd5b5050565b611101838473ffffffffffffffffffffffffffffffffffffffff1663a9059cbb85856040516024016110ba929190612430565b604051602081830303815290604052915060e01b6020820180517bffffffffffffffffffffffffffffffffffffffffffffffffffffffff838183161783525050505061191e565b505050565b61110e610cd4565b73ffffffffffffffffffffffffffffffffffffffff1661112c61092b565b73ffffffffffffffffffffffffffffffffffffffff161461118b5761114f610cd4565b6040517f118cdaa70000000000000000000000000000000000000000000000000000000081526004016111829190611df9565b60405180910390fd5b565b6000600660009054906101000a900473ffffffffffffffffffffffffffffffffffffffff16905081600660006101000a81548173ffffffffffffffffffffffffffffffffffffffff021916908373ffffffffffffffffffffffffffffffffffffffff1602179055508173ffffffffffffffffffffffffffffffffffffffff168173ffffffffffffffffffffffffffffffffffffffff167f8be0079c531659141344cd1fd0a4f28419497f9722a3daafe3b4186f6b6457e060405160405180910390a35050565b600073ffffffffffffffffffffffffffffffffffffffff168273ffffffffffffffffffffffffffffffffffffffff16036112c457816040517f5b08ba180000000000000000000000000000000000000000000000000000000081526004016112bb9190611df9565b60405180910390fd5b80600560008573ffffffffffffffffffffffffffffffffffffffff1673ffffffffffffffffffffffffffffffffffffffff16815260200190815260200160002060008473ffffffffffffffffffffffffffffffffffffffff1673ffffffffffffffffffffffffffffffffffffffff16815260200190815260200160002060006101000a81548160ff0219169083151502179055508173ffffffffffffffffffffffffffffffffffffffff168373ffffffffffffffffffffffffffffffffffffffff167f17307eab39ab6107e8899845ad3d59bd9653f200f220920489ca2b5937696c31836040516113b59190611c88565b60405180910390a3505050565b60008373ffffffffffffffffffffffffffffffffffffffff163b111561156c578273ffffffffffffffffffffffffffffffffffffffff1663150b7a02868685856040518563ffffffff1660e01b815260040161142194939291906124ae565b6020604051808303816000875af192505050801561145d57506040513d601f19601f8201168201806040525081019061145a919061250f565b60015b6114e1573d806000811461148d576040519150601f19603f3d011682016040523d82523d6000602084013e611492565b606091505b5060008151036114d957836040517f64a0ae920000000000000000000000000000000000000000000000000000000081526004016114d09190611df9565b60405180910390fd5b805181602001fd5b63150b7a0260e01b7bffffffffffffffffffffffffffffffffffffffffffffffffffffffff1916817bffffffffffffffffffffffffffffffffffffffffffffffffffffffff19161461156a57836040517f64a0ae920000000000000000000000000000000000000000000000000000000081526004016115619190611df9565b60405180910390fd5b505b5050505050565b606060405180602001604052806000815250905090565b606060006001611599846119c0565b01905060008167ffffffffffffffff8111156115b8576115b7611fa0565b5b6040519080825280601f01601f1916602001820160405280156115ea5781602001600182028036833780820191505090505b509050600082602001820190505b60011561164d578080600190039150507f3031323334353637383961626364656600000000000000000000000000000000600a86061a8153600a8581611641576116406122fa565b5b049450600085036115f8575b819350505050919050565b60006002600083815260200190815260200160002060009054906101000a900473ffffffffffffffffffffffffffffffffffffffff169050919050565b80806116ce5750600073ffffffffffffffffffffffffffffffffffffffff168273ffffffffffffffffffffffffffffffffffffffff1614155b156118025760006116de84610c0f565b9050600073ffffffffffffffffffffffffffffffffffffffff168373ffffffffffffffffffffffffffffffffffffffff161415801561174957508273ffffffffffffffffffffffffffffffffffffffff168173ffffffffffffffffffffffffffffffffffffffff1614155b801561175c575061175a8184610a8b565b155b1561179e57826040517fa9fbf51f0000000000000000000000000000000000000000000000000000000081526004016117959190611df9565b60405180910390fd5b811561180057838573ffffffffffffffffffffffffffffffffffffffff168273ffffffffffffffffffffffffffffffffffffffff167f8c5be1e5ebec7d5bd14f71427d1e84f3dd0314c0f7b2291e5b200ac8c7c3b92560405160405180910390a45b505b836004600085815260200190815260200160002060006101000a81548173ffffffffffffffffffffffffffffffffffffffff021916908373ffffffffffffffffffffffffffffffffffffffff16021790555050505050565b611865838383611b13565b61191957600073ffffffffffffffffffffffffffffffffffffffff168373ffffffffffffffffffffffffffffffffffffffff16036118da57806040517f7e2732890000000000000000000000000000000000000000000000000000000081526004016118d19190611f0f565b60405180910390fd5b81816040517f177e802f000000000000000000000000000000000000000000000000000000008152600401611910929190612430565b60405180910390fd5b505050565b600080602060008451602086016000885af180611941576040513d6000823e3d81fd5b3d92506000519150506000821461195c576001811415611978565b60008473ffffffffffffffffffffffffffffffffffffffff163b145b156119ba57836040517f5274afe70000000000000000000000000000000000000000000000000000000081526004016119b19190611df9565b60405180910390fd5b50505050565b600080600090507a184f03e93ff9f4daa797ed6e38ed64bf6a1f0100000000000000008310611a1e577a184f03e93ff9f4daa797ed6e38ed64bf6a1f0100000000000000008381611a1457611a136122fa565b5b0492506040810190505b6d04ee2d6d415b85acef81000000008310611a5b576d04ee2d6d415b85acef81000000008381611a5157611a506122fa565b5b0492506020810190505b662386f26fc100008310611a8a57662386f26fc100008381611a8057611a7f6122fa565b5b0492506010810190505b6305f5e1008310611ab3576305f5e1008381611aa957611aa86122fa565b5b0492506008810190505b6127108310611ad8576127108381611ace57611acd6122fa565b5b0492506004810190505b60648310611afb5760648381611af157611af06122fa565b5b0492506002810190505b600a8310611b0a576001810190505b80915050919050565b60008073ffffffffffffffffffffffffffffffffffffffff168373ffffffffffffffffffffffffffffffffffffffff1614158015611bcb57508273ffffffffffffffffffffffffffffffffffffffff168473ffffffffffffffffffffffffffffffffffffffff161480611b8c5750611b8b8484610a8b565b5b80611bca57508273ffffffffffffffffffffffffffffffffffffffff16611bb283610c97565b73ffffffffffffffffffffffffffffffffffffffff16145b5b90509392505050565b6000604051905090565b600080fd5b600080fd5b60007fffffffff0000000000000000000000000000000000000000000000000000000082169050919050565b611c1d81611be8565b8114611c2857600080fd5b50565b600081359050611c3a81611c14565b92915050565b600060208284031215611c5657611c55611bde565b5b6000611c6484828501611c2b565b91505092915050565b60008115159050919050565b611c8281611c6d565b82525050565b6000602082019050611c9d6000830184611c79565b92915050565b600081519050919050565b600082825260208201905092915050565b60005b83811015611cdd578082015181840152602081019050611cc2565b60008484015250505050565b6000601f19601f8301169050919050565b6000611d0582611ca3565b611d0f8185611cae565b9350611d1f818560208601611cbf565b611d2881611ce9565b840191505092915050565b60006020820190508181036000830152611d4d8184611cfa565b905092915050565b6000819050919050565b611d6881611d55565b8114611d7357600080fd5b50565b600081359050611d8581611d5f565b92915050565b600060208284031215611da157611da0611bde565b5b6000611daf84828501611d76565b91505092915050565b600073ffffffffffffffffffffffffffffffffffffffff82169050919050565b6000611de382611db8565b9050919050565b611df381611dd8565b82525050565b6000602082019050611e0e6000830184611dea565b92915050565b611e1d81611dd8565b8114611e2857600080fd5b50565b600081359050611e3a81611e14565b92915050565b60008060408385031215611e5757611e56611bde565b5b6000611e6585828601611e2b565b9250506020611e7685828601611d76565b9150509250929050565b600080600060608486031215611e9957611e98611bde565b5b6000611ea786828701611e2b565b9350506020611eb886828701611e2b565b9250506040611ec986828701611d76565b9150509250925092565b600060208284031215611ee957611ee8611bde565b5b6000611ef784828501611e2b565b91505092915050565b611f0981611d55565b82525050565b6000602082019050611f246000830184611f00565b92915050565b611f3381611c6d565b8114611f3e57600080fd5b50565b600081359050611f5081611f2a565b92915050565b60008060408385031215611f6d57611f6c611bde565b5b6000611f7b85828601611e2b565b9250506020611f8c85828601611f41565b9150509250929050565b600080fd5b600080fd5b7f4e487b7100000000000000000000000000000000000000000000000000000000600052604160045260246000fd5b611fd882611ce9565b810181811067ffffffffffffffff82111715611ff757611ff6611fa0565b5b80604052505050565b600061200a611bd4565b90506120168282611fcf565b919050565b600067ffffffffffffffff82111561203657612035611fa0565b5b61203f82611ce9565b9050602081019050919050565b82818337600083830152505050565b600061206e6120698461201b565b612000565b90508281526020810184848401111561208a57612089611f9b565b5b61209584828561204c565b509392505050565b600082601f8301126120b2576120b1611f96565b5b81356120c284826020860161205b565b91505092915050565b600080600080608085870312156120e5576120e4611bde565b5b60006120f387828801611e2b565b945050602061210487828801611e2b565b935050604061211587828801611d76565b925050606085013567ffffffffffffffff81111561213657612135611be3565b5b6121428782880161209d565b91505092959194509250565b6000806040838503121561216557612164611bde565b5b600061217385828601611e2b565b925050602061218485828601611e2b565b9150509250929050565b7f4e487b7100000000000000000000000000000000000000000000000000000000600052602260045260246000fd5b600060028204905060018216806121d557607f821691505b6020821081036121e8576121e761218e565b5b50919050565b7f4e487b7100000000000000000000000000000000000000000000000000000000600052601160045260246000fd5b600061222882611d55565b91507fffffffffffffffffffffffffffffffffffffffffffffffffffffffffffffffff820361225a576122596121ee565b5b600182019050919050565b600060608201905061227a6000830186611dea565b6122876020830185611f00565b6122946040830184611dea565b949350505050565b6000819050919050565b6122b76122b282611d55565b61229c565b82525050565b60006122c982866122a6565b6020820191506122d982856122a6565b6020820191506122e982846122a6565b602082019150819050949350505050565b7f4e487b7100000000000000000000000000000000000000000000000000000000600052601260045260246000fd5b600061233482611d55565b915061233f83611d55565b92508261234f5761234e6122fa565b5b828206905092915050565b600061236582611d55565b915061237083611d55565b9250828201905080821115612388576123876121ee565b5b92915050565b60008151905061239d81611d5f565b92915050565b6000602082840312156123b9576123b8611bde565b5b60006123c78482850161238e565b91505092915050565b600081905092915050565b60006123e682611ca3565b6123f081856123d0565b9350612400818560208601611cbf565b80840191505092915050565b600061241882856123db565b915061242482846123db565b91508190509392505050565b60006040820190506124456000830185611dea565b6124526020830184611f00565b9392505050565b600081519050919050565b600082825260208201905092915050565b600061248082612459565b61248a8185612464565b935061249a818560208601611cbf565b6124a381611ce9565b840191505092915050565b60006080820190506124c36000830187611dea565b6124d06020830186611dea565b6124dd6040830185611f00565b81810360608301526124ef8184612475565b905095945050505050565b60008151905061250981611c14565b92915050565b60006020828403121561252557612524611bde565b5b6000612533848285016124fa565b9150509291505056fea264697066735822122002a5dc5d4bd26812e2a746472397998f7c1a4e212179fbdea0f179a834e1619d64736f6c634300081a0033",
  "linkReferences": {},
  "deployedLinkReferences": {}
}